:100000000C9462000C948A000C948A000C948A0070
:100010000C948A000C948A000C948A000C948A0038
:100020000C948A000C948A000C948A000C948A0028
:100030000C948A000C948A000C948A000C948A0018
:100040000C9497030C948A000C9465030C943F0362
:100050000C948A000C948A000C948A000C948A00F8
:100060000C948A000C948A000000000024002700F1
:100070002A0000000000250028002B0000000000DE
:1000800023002600290004040404040404040202DA
:100090000202020203030303030301020408102007
:1000A0004080010204081020010204081020000012
:1000B0000008000201000003040700000000000027
:1000C0000000E10311241FBECFEFD8E0DEBFCDBF9B
:1000D00011E0A0E0B1E0ECE7FFE002C005900D9276
:1000E000A432B107D9F721E0A4E2B1E001C01D922A
:1000F000A53FB207E1F710E0C2E6D0E004C02197C7
:10010000FE010E94B107C136D107C9F70E9422043F
:100110000C94BC070C940000CF92DF92EF92FF92F8
:100120000F931F93CF93DF936C017A018B01C0E093
:10013000D0E0CE15DF0589F0D8016D918D01D60193
:10014000ED91FC910190F081E02DC6010995892B7C
:1001500011F47E0102C02196ECCFC701DF91CF914F
:100160001F910F91FF90EF90DF90CF900895FC01C9
:10017000918D828D981761F0828DDF01A80FB11DDE
:100180005D968C91928D9F5F9F73928F90E0089502
:100190008FEF9FEF0895FC01918D828D981731F0BC
:1001A000828DE80FF11D858D90E008958FEF9FEF10
:1001B0000895FC01918D228D892F90E0805C9F4FE6
:1001C000821B91098F739927089585E491E00E941D
:1001D000D90021E0892B09F420E0822F0895FC0149
:1001E000848DDF01A80FB11DA35ABF4F2C91848DC0
:1001F00090E001968F739927848FA689B7892C93F5
:10020000A089B1898C9180648C93938D848D98138F
:1002100006C00288F389E02D80818F7D8083089558
:10022000EF92FF920F931F93CF93DF93EC0181E046
:10023000888F9B8D8C8D981305C0E889F989808102
:1002400085FD24C0F62E0B8D10E00F5F1F4F0F733E
:100250001127E02E8C8DE8120CC00FB607FCFACFE8
:10026000E889F989808185FFF5CFCE010E94EF00F2
:10027000F1CF8B8DFE01E80FF11DE35AFF4FF082A5
:100280000B8FEA89FB898081806207C0EE89FF8934
:100290006083E889F98980818064808381E090E0CF
:1002A000DF91CF911F910F91FF90EF900895CF9321
:1002B000DF93EC01888D8823C9F0EA89FB8980816E
:1002C00085FD05C0A889B9898C9186FD0FC00FB640
:1002D00007FCF5CF808185FFF2CFA889B9898C9181
:1002E00085FFEDCFCE010E94EF00E7CFDF91CF91E8
:1002F000089580E090E0892B29F00E94E5008111AB
:100300000C9400000895833081F028F4813099F036
:100310008230A1F008958730A9F08830B9F0843098
:10032000D1F4809180008F7D03C0809180008F7711
:1003300080938000089584B58F7702C084B58F7D47
:1003400084BD08958091B0008F7703C08091B00084
:100350008F7D8093B0000895CF93DF93282F30E0F6
:10036000F901E255FF4F8491F901E656FF4FD49110
:10037000F901EA57FF4FC491CC2391F081110E94FB
:100380008301EC2FF0E0EE0FFF1FE458FF4FA59123
:10039000B491EC91ED2381E090E021F480E002C083
:1003A00080E090E0DF91CF9108951F93CF93DF938A
:1003B000282F30E0F901E255FF4F8491F901E6560C
:1003C000FF4FD491F901EA57FF4FC491CC23C9F0F4
:1003D000162F81110E948301EC2FF0E0EE0FFF1F1A
:1003E000EE58FF4FA591B4918FB7F894111105C045
:1003F0009C91ED2FE095E92302C0EC91ED2BEC935D
:100400008FBFDF91CF911F910895BF92CF92DF925E
:10041000EF92FF920F931F93CF93DF93C82ED62EA8
:10042000B42EC7E0D0E0022F10E087E0E82EF12CD8
:10043000B11005C0C7018C1B9D0B980102C098012B
:100440008C2F02C0359527958A95E2F7B901617026
:1004500077278C2D0E94D50161E08D2D0E94D5015A
:1004600060E08D2D0E94D501219710F7DF91CF918B
:100470001F910F91FF90EF90DF90CF90BF90089564
:10048000CF93DF9390E0FC01E656FF4F2491FC01EF
:10049000EA57FF4F8491882361F190E0880F991FFC
:1004A000FC01E859FF4FC591D491FC01EE58FF4F74
:1004B000A591B491611109C09FB7F89488812095E6
:1004C00082238883EC912E230BC0623061F49FB7A6
:1004D000F8943881822F809583238883EC912E2B8A
:1004E0002C939FBF06C08FB7F894E8812E2B2883EA
:1004F0008FBFDF91CF9108950F931F93CF93DF9319
:100500001F92CDB7DEB7282F0AEE11E061E0F801A7
:10051000818129830E94400261E0F80181810E946B
:10052000D50161E0F80180810E94D50160E0F80109
:1005300081810E94D50160E0F80180810E94D5018F
:10054000298141E0F801608181810F90DF91CF9195
:100550001F910F910C94050260E08091EB010E94C5
:10056000400261E08091EA010E94D5018091EB0197
:100570000E94AC010197D1F360E08091EA010C94F4
:10058000D5010F931F93CF93DF931F92CDB7DEB7A3
:10059000282F0AEE11E061E0F801818129830E9491
:1005A0004002298141E0F801608181810F90DF9153
:1005B000CF911F910F910C940502CF93DF93CAEE58
:1005C000D1E061E089810E94400260E089810E945F
:1005D000D50161E088810E94D50161E089810E9496
:1005E000D50160E08981DF91CF910C944002CF93D7
:1005F000DF93CAEED1E061E089810E94400260E0B1
:1006000088810E94D50161E089810E94D50161E065
:1006100088810E94D50160E088810E94D50160E058
:100620008981DF91CF910C9440021F93CF93DF9388
:1006300060E08091EB010E944002C7E0D0E010E052
:1006400061E08091EA010E94D5018091EB010E9456
:10065000AC019C0133270C2E01C0220F0A94EAF74B
:10066000122B60E08091EA010E94D501219740F7AA
:10067000812FDF91CF911F9108950E94B7071F929C
:100680000F920FB60F9211242F933F934F935F93C6
:100690006F937F938F939F93AF93BF93EF93FF934A
:1006A00085E491E00E94EF00FF91EF91BF91AF913F
:1006B0009F918F917F916F915F914F913F912F917A
:1006C0000F900FBE0F901F9018951F920F920FB6AC
:1006D0000F9211242F938F939F93EF93FF93E091A9
:1006E0005501F09156018081E0915B01F0915C0130
:1006F00082FD12C0908180915E018F5F8F73209187
:100700005F01821751F0E0915E01F0E0EB5BFE4F7C
:10071000958F80935E0101C08081FF91EF919F9141
:100720008F912F910F900FBE0F901F9018951F92D1
:100730000F920FB60F9211242F933F938F939F9395
:10074000AF93BF938091290190912A01A0912B0131
:10075000B0912C013091280123E0230F2D3720F494
:100760000196A11DB11D05C026E8230F0296A11D0B
:10077000B11D209328018093290190932A01A09311
:100780002B01B0932C018091240190912501A0911F
:100790002601B09127010196A11DB11D809324016E
:1007A00090932501A0932601B0932701BF91AF91AB
:1007B0009F918F913F912F910F900FBE0F901F909F
:1007C0001895E5E4F1E01382128288EE93E0A0E050
:1007D000B0E084839583A683B78388E191E0918319
:1007E000808385EC90E09587848784EC90E0978700
:1007F000868780EC90E0918B808B81EC90E0938BEE
:10080000828B82EC90E0958B848B86EC90E0978BCA
:10081000868B118E128E138E148EEAEEF1E082E139
:10082000818383E18083E2EEF1E08AED97E09683B5
:10083000858381E08483838310821182128285E024
:1008400087830895789484B5826084BD84B581607F
:1008500084BD85B5826085BD85B5816085BD80918B
:100860006E00816080936E00109281008091810003
:1008700082608093810080918100816080938100FB
:10088000809180008160809380008091B1008460BD
:100890008093B1008091B00081608093B00080911E
:1008A0007A00846080937A0080917A0082608093DD
:1008B0007A0080917A00816080937A0080917A003A
:1008C000806880937A001092C100E0915501F09108
:1008D000560182E08083E0915101F0915201108233
:1008E000E0915301F091540180E1808310925D0109
:1008F000E0915901F0915A0186E08083E09157011F
:10090000F0915801808180618083E0915701F091DE
:100910005801808188608083E0915701F0915801EF
:10092000808180688083E0915701F0915801808137
:100930008F7D80838091EB01823101F58091EA0106
:100940008331E1F481E08093F40161E082E10E946F
:10095000D50161E083E10E94D5018091B9008E7FCD
:100960008093B9008091B9008D7F8093B9008CE0AD
:100970008093B80085E08093BC0007C01092F4011A
:1009800061E08091EA010E9440028091F401882395
:1009900009F43FC084EE8093BC008091BC0087FFC7
:1009A000FCCF80ED8093BB0084EC8093BC008091F1
:1009B000BC0087FFFCCF1092BB0084EC8093BC008E
:1009C0008091BC0087FFFCCF84EE8093BC008091B7
:1009D000BC0087FFFCCF81ED8093BB0084EC80934B
:1009E000BC008091BC0087FFFCCF84EC8093BC00EE
:1009F0008091BC0087FFFCCFC091BB0084E880934E
:100A0000BC008091BC0087FFFCCF84E98093BC00D0
:100A100016C080ED0E947C020E94AC0280E00E9421
:100A2000C1020E94AC0281ED0E947C020E94AC02D5
:100A30000E941503C82F0E94F7020E94DD02CF77A3
:100A40008091F401882339F184EE8093BC00809179
:100A5000BC0087FFFCCF80ED8093BB0084EC8093CB
:100A6000BC008091BC0087FFFCCF1092BB0084ECDF
:100A70008093BC008091BC0087FFFCCFC093BB007B
:100A800084EC8093BC008091BC0087FFFCCF84E99C
:100A90008093BC0011C080ED0E947C020E94AC02D9
:100AA00080E00E94C1020E94AC028C2F0E94C10211
:100AB0000E94AC020E94DD02E0915501F0915601C6
:100AC00082E08083E0915101F09152011082E09127
:100AD0005301F09154018FEC808310925D01E091FD
:100AE0005901F0915A0186E08083E0915701F0911D
:100AF0005801808180618083E0915701F091580115
:100B0000808188608083E0915701F0915801808155
:100B100080688083E0915701F091580180818F7D3A
:100B2000808361E08BE00E94400261E08CE00E94E3
:100B3000400261E088E00E94400264EC262E7AE0E8
:100B4000372EE4E64E2E512CFAE08F2E912C809118
:100B5000F401882309F442C034EE3093BC00809144
:100B6000BC0087FFFCCF80ED8093BB002092BC00CF
:100B70008091BC0087FFFCCF1092BB002092BC008C
:100B80008091BC0087FFFCCF84EE8093BC008091F5
:100B9000BC0087FFFCCF81ED8093BB002092BC009E
:100BA0008091BC0087FFFCCFECEEF1E02092BC000E
:100BB0008091BC0087FFFCCF8091BB00819331E026
:100BC000E33FF30799F784E88093BC008091BC0071
:100BD00087FFFCCF34E93093BC0041C080ED0E9418
:100BE0007C020E94AC0280E00E94C1020E94AC0222
:100BF00081ED0E947C020E94AC02C0E0D0E00E9425
:100C00001503FE01E651FE4F8283C630D105F9F08F
:100C100061E08091EB010E94400260E08091EA0176
:100C20000E94D50160E08091EB010E94D50161E056
:100C30008091EA010E94D50160E08091EA010E9462
:100C4000D50160E08091EB010E94400202C00E9449
:100C5000F7022196C730D10591F60E94DD028091FE
:100C6000EC01482F4695469546954E70942F990F66
:100C7000990F490F8F70480F8091ED01E82FE6958D
:100C8000E695E695EE709E2F990F990FE90F8F70FC
:100C9000E80F9091EE01F92FFF7097FF08C095FBC8
:100CA000222720F98CE0829FF00D112409C0907357
:100CB000969596959695892F880F880F980FF90F1E
:100CC0006091EF012091F001822F8695869586959F
:100CD0008E70982F990F990F890F2F70820F909116
:100CE000F101592F5695569556955E70252F220F76
:100CF000220F520F9F70590F2091F201922F92955F
:100D00009F702F703AE0939F200D112430E0205304
:100D1000384FF093E201E093E3014093E4018093C4
:100D2000E5015093E6013093E8012093E7016093D9
:100D3000E901632D0E949107682F70E070934401D0
:100D400060934301892F90E0909342018093410189
:100D5000852F632D0E949107682F70E070934001EA
:100D600060933F01892F90E090933E0180933D0175
:100D7000C901B2010E949D07B4010E949D077093B2
:100D80003C0160933B01C901B4010E949D0790930F
:100D90003A01809339018F2F632D0E949107682EAD
:100DA000712C7092380160923701A92EB12CB0924B
:100DB0003601A09235018E2F0E949107C82ED12CAA
:100DC000D0923401C0923301E92EF12CF09232011D
:100DD000E0923101842F0E949107082F10E01093B8
:100DE000300100932F01C92FD0E0D0932E01C09382
:100DF0002D0160E088E00E94D50121E040E06CE038
:100E00008BE00E940502F301EE0FFF1FE050FF4F41
:100E1000208140E06CE08BE00E94050261E088E008
:100E20000E94D50160E088E00E94D50122E040E008
:100E30006CE08BE00E940502F501EE0FFF1FE05011
:100E4000FF4F208140E06CE08BE00E94050261E0F2
:100E500088E00E94D50160E088E00E94D50124E08E
:100E600040E06CE08BE00E940502F601EE0FFF1FF0
:100E7000E050FF4F208140E06CE08BE00E940502D3
:100E800061E088E00E94D50160E088E00E94D50121
:100E900028E040E06CE08BE00E940502F701EE0FD5
:100EA000FF1FE050FF4F208140E06CE08BE00E948C
:100EB000050261E088E00E94D50160E088E00E94C0
:100EC000D50120E140E06CE08BE00E940502000FBC
:100ED000111FF801E050FF4F208140E06CE08BE0F3
:100EE0000E94050261E088E00E94D50160E088E090
:100EF0000E94D50120E240E06CE08BE00E940502F8
:100F0000CC0FDD1FC050DF4F288140E06CE08BE04C
:100F10000E94050261E088E00E94D5010E947901EB
:100F200016CE991B79E004C0991F961708F0961BFE
:100F3000881F7A95C9F780950895AA1BBB1B51E1BC
:100F400007C0AA1FBB1FA617B70710F0A61BB70B39
:100F5000881F991F5A95A9F780959095BC01CD01DE
:100F60000895EE0FFF1F0590F491E02D099481E0A4
:0C0F700090E0F8940C94BC07F894FFCFBC
:100F7C0003009F0025000D009900490041001B0053
:100F8C00010009000000000010018C00D900B7001E
:040F9C00CB0057012E
:00000001FF
