:100000000C945D000C9485000C9485000C94850084
:100010000C9485000C9485000C9485000C9485004C
:100020000C9485000C9485000C9485000C9485003C
:100030000C9485000C9485000C9485000C9485002C
:100040000C945D020C9485000C94CD020C94A702D4
:100050000C9485000C9485000C9485000C9485000C
:100060000C9485000C94850000000008000201003B
:100070000003040700000000000000000000000072
:10008000250028002B0000000000240027002A0083
:10009000040404040404040402020202020203032E
:1000A0000303030301020408102040800102040836
:1000B00010200102040810208D0411241FBECFEF70
:1000C000D8E0DEBFCDBF11E0A0E0B1E0E2E1FAE0B0
:1000D00002C005900D92A432B107D9F721E0A4E245
:1000E000B1E001C01D92AC3CB207E1F710E0CDE5F4
:1000F000D0E004C02197FE010E94E204CC35D10774
:10010000C9F70E94FF020C9407050C94000090E0D0
:10011000FC01EC55FF4F2491FC01E057FF4F849107
:10012000882399F090E0880F991FFC01EA57FF4F50
:10013000A591B491FC01E458FF4F859194918FB73C
:10014000F894EC91E22BEC938FBF08952FB7F894BD
:1001500080912B0190912C01A0912D01B0912E0145
:100160002FBF8093370190933801A0933901B0934A
:100170003A01E0912F01F09130010084F185E02DEA
:100180008FE291E0099597FF26C02FB7F8948091F0
:100190002B0190912C01A0912D01B0912E012FBF28
:1001A00040913701509138016091390170913A01C5
:1001B000841B950BA60BB70B409133015091340172
:1001C000609135017091360184179507A607B7072E
:1001D00080F28FEF9FEF0895CF92DF92EF92FF9220
:1001E0000F931F93CF93DF936C017A018B01C0E0D3
:1001F000D0E0CE15DF0589F0D8016D918D01D601D3
:10020000ED91FC910190F081E02DC6010995892BBB
:1002100011F47E0102C02196ECCFC701DF91CF918E
:100220001F910F91FF90EF90DF90CF900895FC0108
:10023000918D828D981761F0828DDF01A80FB11D1D
:100240005D968C91928D9F5F9F73928F90E0089541
:100250008FEF9FEF0895FC01918D828D981731F0FB
:10026000828DE80FF11D858D90E008958FEF9FEF4F
:100270000895FC01918D228D892F90E0805C9F4F25
:10028000821B91098F73992708958FE291E00E9454
:10029000390121E0892B09F420E0822F0895FC0127
:1002A000848DDF01A80FB11DA35ABF4F2C91848DFF
:1002B00090E001968F739927848FA689B7892C9334
:1002C000A089B1898C9180648C93938D848D9813CF
:1002D00006C00288F389E02D80818F7D8083089598
:1002E000EF92FF920F931F93CF93DF93EC0181E086
:1002F000888F9B8D8C8D981305C0E889F989808142
:1003000085FD24C0F62E0B8D10E00F5F1F4F0F737D
:100310001127E02E8C8DE8120CC00FB607FCFACF27
:10032000E889F989808185FFF5CFCE010E944F01D0
:10033000F1CF8B8DFE01E80FF11DE35AFF4FF082E4
:100340000B8FEA89FB898081806207C0EE89FF8973
:100350006083E889F98980818064808381E090E00E
:10036000DF91CF911F910F91FF90EF900895CF9360
:10037000DF93EC01888D8823C9F0EA89FB898081AD
:1003800085FD05C0A889B9898C9186FD0FC00FB67F
:1003900007FCF5CF808185FFF2CFA889B9898C91C0
:1003A00085FFEDCFCE010E944F01E7CFDF91CF91C6
:1003B000089580E090E0892B29F00E944501811189
:1003C0000C940000089590E0FC01E859FF4F34912F
:1003D000FC01EC55FF4F2491FC01E057FF4FE491E5
:1003E000EE2309F43BC0332339F1333091F038F474
:1003F0003130A9F0323001F584B58F7D12C037302D
:1004000091F03830A1F03430B9F4809180008F7DC4
:1004100003C0809180008F77809380000DC084B5E9
:100420008F7784BD09C08091B0008F7703C0809121
:10043000B0008F7D8093B000F0E0EE0FFF1FE45816
:10044000FF4FA591B4918FB7F894EC91611103C05F
:1004500020952E2301C02E2B2C938FBF0895EF9251
:10046000FF920F931F93CF93DF93E82EF62EC0E0F9
:10047000D0E0042F10E098010C2E02C0359527958E
:100480000A94E2F7B901617077278E2D0E94E3018B
:1004900061E08F2D0E94E30160E08F2D0E94E30157
:1004A0002196C830D10539F7DF91CF911F910F9177
:1004B000FF90EF9008950E94E8041F920F920FB6EC
:1004C0000F9211242F933F938F939F93AF93BF93DA
:1004D00080912B0190912C01A0912D01B0912E01C2
:1004E00030912A0123E0230F2D3720F40196A11D1E
:1004F000B11D05C026E8230F0296A11DB11D209352
:100500002A0180932B0190932C01A0932D01B0938D
:100510002E018091260190912701A0912801B09190
:1005200029010196A11DB11D8093260190932701F9
:10053000A0932801B0932901BF91AF919F918F9112
:100540003F912F910F900FBE0F901F9018951F9203
:100550000F920FB60F9211242F933F934F935F93F7
:100560006F937F938F939F93AF93BF93EF93FF937B
:100570008FE291E00E944F01FF91EF91BF91AF9107
:100580009F918F917F916F915F914F913F912F91AB
:100590000F900FBE0F901F9018951F920F920FB6DD
:1005A0000F9211242F938F939F93EF93FF93E091DA
:1005B0003F01F09140018081E0914501F0914601B9
:1005C00082FD12C09081809148018F5F8F732091CE
:1005D0004901821751F0E0914801F0E0E15DFE4FE2
:1005E000958F8093480101C08081FF91EF919F9189
:1005F0008F912F910F900FBE0F901F901895CF9352
:10060000DF9300D000D0CDB7DEB7789484B5826098
:1006100084BD84B5816084BD85B5826085BD85B5A6
:10062000816085BD80916E00816080936E00109224
:10063000810080918100826080938100809181009F
:100640008160809381008091800081608093800030
:100650008091B10084608093B1008091B00081608E
:100660008093B00080917A00846080937A008091BA
:100670007A00826080937A0080917A008160809312
:100680007A0080917A00806880937A001092C1008D
:10069000E0913F01F091400182E08083E0913B01D5
:1006A000F0913C011082E0913D01F0913E018FEC10
:1006B000808310924701E0914301F091440186E06C
:1006C0008083E0914101F0914201808180618083CB
:1006D000E0914101F0914201808188608083E09146
:1006E0004101F0914201808180688083E091410165
:1006F000F091420180818F7D80838BE00E94870092
:100700008CE00E94870088E00E9487006AE0E62E65
:10071000F12C74E6C72ED12CE8EEAE2EE3E0BE2E0F
:100720002091240130912501C901B7010E94BA042A
:100730003C01CB01B7010E94BA044C01C901B601CA
:100740000E94BA04CB01B7010E94BA04FC01C9019E
:10075000B5010E94BA04C301880F991F9C01205F54
:100760003E4F3901C401880F991FDC01A05FBE4FC5
:100770004D01EE0FFF1F9F01205F3E4F19018B01BE
:10078000000F111F005F1E4F60E088E00E94E30130
:1007900041E06CE08BE00E942F02D3014C916CE0B1
:1007A0008BE00E942F0261E088E00E94E30160E09C
:1007B00088E00E94E30142E06CE08BE00E942F029F
:1007C000F40140816CE08BE00E942F0261E088E040
:1007D0000E94E30160E088E00E94E30144E06CE0F5
:1007E0008BE00E942F02D1014C916CE08BE00E94C3
:1007F0002F0261E088E00E94E30160E088E00E944F
:10080000E30148E06CE08BE00E942F02F801408198
:100810006CE08BE00E942F0261E088E00E94E3011F
:100820008FE291E00E943901892B09F4ADCF0E943B
:10083000A600FC0197FD11C08D32910591F0C09783
:100840000A9778F0E0912F01F09130010680F7814E
:10085000E02D8FE291E00995EACF40E050E0BA0147
:100860002DC020E030E0A901512CE130F10599F5CF
:10087000E0912F01F09130010680F781E02D8FE2A9
:1008800091E029833A834B835C8309950E94A600FB
:10089000FC01C09729813A814B815C810A9728F33A
:1008A000E130F10511F35520A9F1DA01C90144271E
:1008B0005527BA01481B590B6A0B7B0BCA010197DC
:1008C0008F30974208F060CF509325014093240168
:1008D0000E94D90125CFED32F105C9F0CF01C097B3
:1008E0000A9730F6AAE0B0E00E94ED049F01FF0FE6
:1008F000440B550BDC01CB01820F931FA41FB51FC6
:100900009C01AD012053310941095109B1CF552452
:100910005394AECFBA01A901D1CFEFE2F1E0138237
:10092000128288EE93E0A0E0B0E084839583A683F2
:10093000B78384E091E09183808385EC90E0958794
:10094000848784EC90E09787868780EC90E0918B99
:10095000808B81EC90E0938B828B82EC90E0958B86
:10096000848B86EC90E0978B868B118E128E138E83
:10097000148E089597FB072E16F4009407D077FD88
:1009800009D00E94CE0407FC05D03EF490958195D5
:100990009F4F0895709561957F4F0895AA1BBB1BCB
:1009A00051E107C0AA1FBB1FA617B70710F0A61B6F
:1009B000B70B881F991F5A95A9F780959095BC0190
:1009C000CD010895EE0FFF1F0590F491E02D0994DD
:1009D00081E090E0F8940C9407050E94F804A59F2C
:1009E000900DB49F900DA49F800D911D112408952A
:1009F000A29FB001B39FC001A39F700D811D112460
:100A0000911DB29F700D811D1124911D0895F894C0
:020A1000FFCF16
:100A1200000000007001EC00390117012B01B70141
:100A220001004F00120006004C00240020000F00BD
:040A320000000C00B4
:00000001FF
