:100000000C945C000C9479000C9479000C947900A9
:100010000C9479000C9479000C9479000C9479007C
:100020000C9479000C9479000C9479000C9479006C
:100030000C9479000C9479000C9479000C9479005C
:100040000C944B010C9479000C9479000C94790079
:100050000C9479000C9479000C9479000C9479003C
:100060000C9479000C947900000000080002010053
:100070000003040700000000000000000000000072
:10008000250028002B0000000000240027002A0083
:10009000040404040404040402020202020203032E
:1000A0000303030301020408102040800102040836
:1000B000102001020408102011241FBECFEFD8E049
:1000C000DEBFCDBF11E0A0E0B1E0E4EFF4E002C09C
:1000D00005900D92A231B107D9F721E0A2E1B1E07C
:1000E00001C01D92AB31B207E1F70E9495010C945B
:1000F00078020C94000090E0FC01EC55FF4F249135
:10010000FC01E057FF4F8491882399F090E0880F1D
:10011000991FFC01EA57FF4FA591B491FC01E458E7
:10012000FF4F859194918FB7F894EC91E22BEC936B
:100130008FBF089590E0FC01E859FF4F3491FC0116
:10014000EC55FF4F2491FC01E057FF4FE491EE2363
:1001500009F43BC0332339F1333091F038F43130B6
:10016000A9F0323001F584B58F7D12C0373091F09F
:100170003830A1F03430B9F4809180008F7D03C015
:10018000809180008F77809380000DC084B58F7739
:1001900084BD09C08091B0008F7703C08091B0000A
:1001A0008F7D8093B000F0E0EE0FFF1FE458FF4F0B
:1001B000A591B4918FB7F894EC91611103C020958B
:1001C0002E2301C02E2B2C938FBF0895EF92FF9208
:1001D0000F931F93CF93DF93E82EF62EC7E0D0E066
:1001E000042F10E098010C2E02C0359527950A9433
:1001F000E2F7B901617077278E2D0E949A0061E0C5
:100200008F2D0E949A0060E08F2D0E949A00219706
:1002100048F7DF91CF911F910F91FF90EF900895D4
:100220000F931F93CF93DF938A30910530F4FC0135
:10023000E85FFE4FC081D0E002C0CFEFD0E0615058
:1002400071096830710528F4FB01E050FF4F00810F
:1002500002C000E010E04130510511F4C058DF4FFA
:1002600060E088E00E949A00402F6CE08BE00E94E2
:10027000E6004C2F6CE08BE00E94E60061E088E035
:100280000E949A008BE891E00197F1F7DF91CF91FE
:100290001F910F9108951F920F920FB60F92112484
:1002A0002F933F938F939F93AF93BF9380911701A9
:1002B00090911801A0911901B0911A013091160185
:1002C00023E0230F2D3720F40196A11DB11D05C099
:1002D00026E8230F0296A11DB11D209316018093DD
:1002E000170190931801A0931901B0931A018091FE
:1002F000120190911301A0911401B0911501019682
:10030000A11DB11D8093120190931301A0931401BC
:10031000B0931501BF91AF919F918F913F912F9114
:100320000F900FBE0F901F901895CF93DF93CDB70E
:10033000DEB7A0970FB6F894DEBF0FBECDBF78949E
:1003400084B5826084BD84B5816084BD85B58260DA
:1003500085BD85B5816085BD80916E00816080938B
:100360006E001092810080918100826080938100F4
:100370008091810081608093810080918000816004
:10038000809380008091B10084608093B10080915F
:10039000B00081608093B00080917A008460809387
:1003A0007A0080917A00826080937A0080917A004E
:1003B000816080937A0080917A00806880937A00CF
:1003C0001092C10088E00E947B008CE00E947B00BC
:1003D0008BE00E947B007E0183E2E80EF11C1E018F
:1003E0009FE0290E311C4BE0442E512C01E010E01F
:1003F00085E0A82EB12C96E0892E912C28E0622E63
:10040000712C30E0C32E30E0D32EFE017396119292
:100410001192EE15FF05D9F71C821B821E830D83F6
:1004200083E090E098878F8384E090E09A878987C3
:10043000BC86AB869E868D86788A6F86FE01319655
:1004400080E090E0009739F422813381232B19F466
:100450005382428202C081E090E03296E215F305B9
:1004600089F74B895C8961E070E08B819C810E94F7
:1004700010014D895E8962E070E08D819E810E944D
:1004800010014F89588D63E070E08F8198850E943C
:100490001001498D5A8D64E070E089859A850E942B
:1004A00010014B8D5C8D65E070E08B859C850E9412
:1004B000100141E050E066E070E08D859E850E946D
:1004C000100140E050E067E070E08F8598890E945D
:1004D000100149A15AA168E070E080E090E00E941C
:1004E0001001C114D10409F490CF0E94000080CF04
:0404F000F894FFCFAE
:1004F4000102040810204080C0F9A4B0999282F847
:020504008090E5
:00000001FF
