:100000000C9469000C9491000C9491000C94910054
:100010000C9491000C9491000C9491000C9491001C
:100020000C9491000C9491000C9491000C9491000C
:100030000C9491000C9491000C9491000C949100FC
:100040000C9487020C9491000C9491000C949100F4
:100050000C9491000C9491000C9491000C949100DC
:100060000C9491000C94910078057B057E05810528
:1000700084058B05920500000000240027002A005B
:1000800000000000250028002B00000000002300D5
:1000900026002900040404040404040402020202E9
:1000A000020203030303030301020408102040803B
:1000B00001020408102001020408102000000008BA
:1000C000000201000003040700000000000000001F
:1000D000140611241FBECFEFD8E0DEBFCDBF11E064
:1000E000A0E0B1E0E2EAFCE002C005900D92A0338E
:1000F000B107D9F721E0A0E3B1E001C01D92AC3611
:10010000B207E1F710E0C9E6D0E004C02197FE0194
:100110000E944906C836D107C9F70E94D1020C9443
:100120004F060C940000833081F028F4813099F060
:100130008230A1F008958730A9F08830B9F084307A
:10014000D1F4809180008F7D03C0809180008F77F3
:1001500080938000089584B58F7702C084B58F7D29
:1001600084BD08958091B0008F7703C08091B00066
:100170008F7D8093B0000895CF93DF93282F30E0D8
:10018000F901E454FF4F8491F901E855FF4FD491F0
:10019000F901EC56FF4FC491CC2391F081110E94DC
:1001A0009300EC2FF0E0EE0FFF1FE657FF4FA591F5
:1001B000B491EC91ED2381E090E021F480E002C065
:1001C00080E090E0DF91CF9108951F93CF93DF936C
:1001D000282F30E0F901E454FF4F8491F901E855EC
:1001E000FF4FD491F901EC56FF4FC491CC23C9F0D5
:1001F000162F81110E949300EC2FF0E0EE0FFF1FED
:10020000E058FF4FA591B4918FB7F894111105C034
:100210009C91ED2FE095E92302C0EC91ED2BEC933E
:100220008FBFDF91CF911F910895CF93DF9390E01F
:10023000FC01E855FF4F2491FC01EC56FF4F8491DF
:10024000882361F190E0880F991FFC01EA58FF4F65
:10025000C591D491FC01E058FF4FA591B491611173
:1002600009C09FB7F8948881209582238883EC91F8
:100270002E230BC0623061F49FB7F8943881822F2F
:10028000809583238883EC912E2B2C939FBF06C0EF
:100290008FB7F894E8812E2B28838FBFDF91CF9101
:1002A000089560E0809162010E94150161E08091F3
:1002B00061010E94E500809162010E94BC000197EB
:1002C000D1F360E0809161010C94E500CF93DF935E
:1002D000C1E6D1E061E089810E94150160E0898179
:1002E0000E94E50061E088810E94E50061E089816B
:1002F0000E94E50060E08981DF91CF910C941501A7
:10030000CF93DF93C1E6D1E061E089810E941501BE
:1003100060E088810E94E50061E089810E94E5003B
:1003200061E088810E94E50060E088810E94E5002C
:1003300060E08981DF91CF910C9415011F93CF93D9
:10034000DF9360E0809162010E941501C7E0D0E078
:1003500010E061E0809161010E94E50080916201FE
:100360000E94BC009C0133270C2E01C0220F0A946E
:10037000EAF7122B60E0809161010E94E50021976D
:1003800040F7812FDF91CF911F910895EF92FF9257
:100390000F931F93CF93DF93E82EF62EC7E0D0E0A4
:1003A000042F10E098010C2E02C0359527950A9471
:1003B000E2F7B901617077278E2D0E94E50061E0B8
:1003C0008F2D0E94E50060E08F2D0E94E5002197AF
:1003D00048F7DF91CF911F910F91FF90EF90089513
:1003E0000F931F93CF93DF931F92CDB7DEB7482FA4
:1003F00001E611E061E0F801818149830E94150165
:1004000061E0F80181810E94E50061E0F8018081EE
:100410000E94E50060E0F80181810E94E50060E053
:10042000F80180810E94E5004981F80160818181A5
:100430000F90DF91CF911F910F910C94C6010F93F4
:100440001F93CF93DF931F92CDB7DEB7482F01E6FE
:1004500011E061E0F801818149830E941501498121
:10046000F801608181810F90DF91CF911F910F91F1
:100470000C94C601EF92FF920F931F93CF93DF93DB
:100480008231910530F4FC01E25EFE4FC081D0E084
:1004900002C0CFEFD0E0615071096F30710560F498
:1004A000FB01E15FFE4F0081FB01E050FF4FE08068
:1004B0000E2C000CFF0804C0E12CF12C00E010E031
:1004C0004130510511F4C058DF4F60E088E00E94D0
:1004D000E5004E2D6CE08BE00E94C601402F6CE0E1
:1004E0008BE00E94C6014C2F6CE08BE00E94C6019D
:1004F00061E088E00E94E5008BE891E00197F1F768
:10050000DF91CF911F910F91FF90EF9008951F926F
:100510000F920FB60F9211242F933F938F939F93B7
:10052000AF93BF938091350190913601A09137012F
:10053000B09138013091340123E0230F2D3720F49E
:100540000196A11DB11D05C026E8230F0296A11D2D
:10055000B11D209334018093350190933601A0930F
:100560003701B09338018091300190913101A09111
:100570003201B09133010196A11DB11D809330016C
:1005800090933101A0933201B0933301BF91AF91A9
:100590009F918F913F912F910F900FBE0F901F90C1
:1005A0001895CF93DF93CDB7DEB728970FB6F894A1
:1005B000DEBF0FBECDBF789484B5826084BD84B5A4
:1005C000816084BD85B5826085BD85B5816085BD4E
:1005D00080916E00816080936E0010928100809106
:1005E000810082608093810080918100816080938E
:1005F0008100809180008160809380008091B100B3
:1006000084608093B1008091B00081608093B000DD
:1006100080917A00846080937A0080917A00826071
:1006200080937A0080917A00816080937A00809133
:100630007A00806880937A001092C10080916201F4
:10064000823101F5809161018331E1F481E0809391
:100650006B0161E082E10E94E50061E083E10E94BC
:10066000E5008091B9008E7F8093B9008091B90038
:100670008D7F8093B9008CE08093B80085E08093F3
:10068000BC0007C010926B0161E0809161010E9483
:10069000150180916B01882309F43FC084EE80939B
:1006A000BC008091BC0087FFFCCF80ED8093BB0035
:1006B00084EC8093BC008091BC0087FFFCCF10923B
:1006C000BB0084EC8093BC008091BC0087FFFCCF12
:1006D00084EE8093BC008091BC0087FFFCCF81ED4D
:1006E0008093BB0084EC8093BC008091BC0087FFAA
:1006F000FCCF84EC8093BC008091BC0087FFFCCFD2
:100700001091BB0084E88093BC008091BC0087FFFF
:10071000FCCF84E98093BC0016C080ED0E94F001FC
:100720000E94510180E00E941F020E94510181ED50
:100730000E94F0010E9451010E949E01182F0E9408
:1007400080010E9466011F7780916B01882339F137
:1007500084EE8093BC008091BC0087FFFCCF80EDCD
:100760008093BB0084EC8093BC008091BC0087FF29
:10077000FCCF1092BB0084EC8093BC008091BC0045
:1007800087FFFCCF1093BB0084EC8093BC0080916A
:10079000BC0087FFFCCF84E98093BC0011C080EDD2
:1007A0000E94F0010E94510180E00E941F020E94FD
:1007B0005101812F0E941F020E9451010E94660177
:1007C00061E088E00E94150161E08CE00E94150163
:1007D00061E08BE00E94150180916B01882309F490
:1007E00046C084EE8093BC008091BC0087FFFCCFA4
:1007F00080ED8093BB0024EC2093BC008091BC0072
:1008000087FFFCCF1092BB0044EC4093BC0080916A
:10081000BC0087FFFCCF84EE8093BC008091BC00BD
:1008200087FFFCCF81ED8093BB0054EC5093BC005C
:100830008091BC0087FFFCCFE3E6F1E064EC6093BD
:10084000BC008091BC0087FFFCCF8091BB008193EE
:1008500071E0EA36F70791F784E88093BC00809155
:10086000BC0087FFFCCF84E98093BC0042C080EDD0
:100870000E94F0010E94510180E00E941F020E942C
:10088000510181ED0E94F0010E94510100E010E051
:100890000E949E01F801EF59FE4F82830630110538
:1008A000F9F061E0809162010E94150160E08091A1
:1008B00061010E94E50060E0809162010E94E50014
:1008C00061E0809161010E94E50060E0809161013A
:1008D0000E94E50060E0809162010E94150102C063
:1008E0000E9480010F5F1F4F0730110589F60E949B
:1008F000660180916301482F4695469546954E7056
:10090000942F990F990F490F8F70480F80916401B0
:10091000182F1695169516951E70912F990F990FF1
:10092000190F8F70180F80916501082F0F7087FFC6
:1009300008C085FB882780F99CE0899F000D112461
:1009400009C08073869586958695982F990F990F83
:10095000890F080FE091660190916701892F8695B4
:10096000869586958E70282F220F220F820F9F70FA
:10097000890F90916801592F5695569556955E703E
:10098000252F220F220F520F9F70590F20916901BE
:10099000922F92959F70322F3F702AE0929F300DD8
:1009A0001124E32EF12C60E3E61A68EFF60A0093B7
:1009B000590110935A0140935B0180935C0150935D
:1009C0005D01F0925F01E0925E01E0936001FAE068
:1009D0006F2F0E942906282F30E030935801209372
:1009E0005701692F70E07A83698370935601609391
:1009F0005501852F6F2F0E942906682F70E07C8398
:100A00006B837093540160935301292E312C3092E3
:100A100052012092510182E090E090935001809326
:100A20004F01C70168EE73E00E94350664E670E08E
:100A30000E9435062B0170934E0160934D01C70152
:100A400064E670E00E9435066AE070E00E943506B8
:100A50003B0170934C0160934B01C7016AE070E069
:100A60000E9435064C0190934A0180934901802FE2
:100A70006F2F0E942906A82FB0E0B0934801A093E1
:100A80004701A92EB12CB0924601A0924501812FB9
:100A90000E942906C82ED12CD0924401C092430155
:100AA000E92EF12CF0924201E0924101842F0E9444
:100AB0002906082F10E01093400100933F01492FB1
:100AC00050E058874F8350933E0140933D018E2F55
:100AD00090E090933C0180933B014E2F50E0FA014F
:100AE0003197E730F10520F5EC5CFF4F0C94490697
:100AF00081E190E019C08CE090E016C06DE070E0FC
:100B00000CC08EE090E010C04FE050E050933A01EE
:100B1000409339010DC060E170E070933A01609339
:100B2000390106C08BE090E090933A01809339013F
:100B300040E050E061E070E0CD012D833E830E94F3
:100B40003A0240E050E062E070E0C5010E943A02E3
:100B500040E050E063E070E0C6010E943A0240E0ED
:100B600050E064E070E0C7010E943A0240E050E0CB
:100B700065E070E0C8010E943A0240E050E066E0A3
:100B800070E08F8198850E943A0240E050E067E073
:100B900070E02D813E81C9010E943A0240E050E0A0
:100BA00068E070E089819A810E943A0240E050E05A
:100BB00069E070E08B819C810E943A0240E050E045
:100BC0006AE070E0C1010E943A0240E050E06BE050
:100BD00070E082E090E00E943A0240E050E06CE079
:100BE00070E0C2010E943A0240E050E06DE070E027
:100BF000C3010E943A0240E050E06EE070E0C401A0
:100C00000E943A0240E050E06FE070E080913901CC
:100C100090913A010E943A0280E090E0892B09F419
:100C2000DBCD0E940000D8CDE1E6F1E082E18183D6
:100C300083E18083E9E5F1E08AED97E0968385839F
:100C400081E08483838310821182128285E087830E
:100C50000895991B79E004C0991F961708F0961B18
:100C6000881F7A95C9F780950895AA1BBB1B51E18F
:100C700007C0AA1FBB1FA617B70710F0A61BB70B0C
:100C8000881F991F5A95A9F780959095BC01CD01B1
:100C90000895EE0FFF1F0590F491E02D0994F8944C
:020CA000FFCF84
:100CA20000000000000000000102040810204001C2
:100CB2000204081020408000000000000000C0F97B
:100CC200A4B0999282F88090FF010204081020409B
:00000001FF
